:09099B000409E7DBBD7E01087FC1
:1009200075B0FF8508A020B70C120981AF08120925
:10093000668F08801E20B60C120981AF0812095874
:100940008F08800F20B50C1209811208001209745B
:0809500075087F8508A080CE28
:0C0974007F077EFF7DFFDDFEDEFADFF670
:010980002254
:0C0981007F037EFF7DFFDDFEDEFADFF667
:01098D002247
:0C098E007F0E7EFF7DFFDDFEDEFADFF64F
:01099A00223A
:0E095800EF25E0FEEFC413131354014EFF22EF
:0E096600EFC43333335480FEEFC3134EFF2231
:100800007508FE8508A09000027A007B07AF0812E9
:1008100009588F088508A0120974EB1B70011AEBA8
:100820004A70EA7A007B07AF081209668F088508CC
:10083000A0120974EB1B70011AEB4A70EAE58215ED
:100840008270021583E582458370BE9000027A00B3
:100850007B0412098EC374049B2409F8E6F508F59D
:10086000A0EB1B70011AEB4A70E87A007B031209B7
:100870008E74092BF8E6F508F5A0EB1B70011ABA87
:10088000FFECBBFFE9E582158270021583E5824526
:030890008370BBB7
:010893002242
:030000000208945F
:0C089400787FE4F6D8FD75810C0208DBCB
:1008A000020920E493A3F8E493A34003F68001F245
:1008B00008DFF48029E493A3F85407240CC8C33359
:1008C000C4540F4420C8834004F456800146F6DF28
:1008D000E4800B010204081020408090099BE47E14
:1008E000019360BCA3FF543F30E509541FFEE4931D
:1008F000A360010ECF54C025E060A840B8E493A3E4
:10090000FAE493A3F8E493A3C8C582C8CAC583CA0E
:10091000F0A3C8C582C8CAC583CADFE9DEE780BEC6
:0109A4000052
:00000001FF
