:09099D000409E7DBBD7E01087FBF
:1009200075B0FF801C20B70C120983AF081209684C
:100930008F08800D20B60F120983AF0812095A8F55
:10094000088508A080DF20B5DC1209831208001298
:0A095000097675087F8508A080CBAA
:0C0976007F077EFF7DFFDDFEDEFADFF66E
:010982002252
:0C0983007F037EFF7DFFDDFEDEFADFF665
:01098F002245
:0C0990007F037E807DFFDDFEDEFADFF6D7
:01099C002238
:0E095A00EF25E0FEEFC413131354014EFF22ED
:0E096800EFC43333335480FEEFC3134EFF222F
:100800007508FE8508A09000027A007B07AF0812E9
:10081000095A8F088508A0120976EB1B70011AEBA4
:100820004A70EA7A007B07AF081209688F088508CA
:10083000A0120976EB1B70011AEB4A70EAE58215EB
:100840008270021583E582458370BE9000027A00B3
:100850007B04120990C374049B2409F8E6F508F59B
:10086000A0EB1B70011AEB4A70E87A007B031209B7
:100870009074092BF8E6F508F5A0EB1B70011ABA85
:10088000FFECBBFFE9E582158270021583E5824526
:030890008370BBB7
:010893002242
:030000000208945F
:0C089400787FE4F6D8FD75810C0208DBCB
:1008A000020920E493A3F8E493A34003F68001F245
:1008B00008DFF48029E493A3F85407240CC8C33359
:1008C000C4540F4420C8834004F456800146F6DF28
:1008D000E4800B010204081020408090099DE47E12
:1008E000019360BCA3FF543F30E509541FFEE4931D
:1008F000A360010ECF54C025E060A840B8E493A3E4
:10090000FAE493A3F8E493A3C8C582C8CAC583CA0E
:10091000F0A3C8C582C8CAC583CADFE9DEE780BEC6
:0109A6000050
:00000001FF
