:090953000409E7DBBD7E01087F09
:1008F40075B0FF800D20B70F120939AF0812092B0C
:100904008F088508A080EE20B6EB120939AF0812D3
:09091400091D8F088508A080DC94
:0C0939007F077EFF7DFFDDFEDEFADFF6AB
:01094500228F
:0C0946007F037EFF7DFFDDFEDEFADFF6A2
:010952002282
:0E091D00EF25E0FEEFC413131354014EFF222A
:0E092B00EFC43333335480FEEFC3134EFF226C
:02088C00AC07B7
:10088E007B077A00AF0412092BAC078CA012094625
:10089E00EB1B70011AEB4A70EB7B077A00AF041268
:1008AE00091DAC078CA0120946EB1B70011AEB4A0E
:1008BE0070EBE4FBFA12094674092BF8E6FCF5A07E
:1008CE000BBB00010AEB64044A70EA7A007B031248
:1008DE00094674092BF8E6FCF5A0EB1B70011ABA59
:0508EE00FFEDBBFFEA75
:0108F30022E2
:03000000020800F3
:0C080000787FE4F6D8FD75810C020847F3
:10080C000208F4E493A3F8E493A34003F68001F206
:10081C0008DFF48029E493A3F85407240CC8C333ED
:10082C00C4540F4420C8834004F456800146F6DFBC
:10083C00E4800B0102040810204080900953E47EF0
:10084C00019360BCA3FF543F30E509541FFEE493B1
:10085C00A360010ECF54C025E060A840B8E493A378
:10086C00FAE493A3F8E493A3C8C582C8CAC583CAA3
:10087C00F0A3C8C582C8CAC583CADFE9DEE780BE5B
:01095C00009A
:00000001FF
