:06098B00040FE7DBBD7E56
:1008000075087F750900750A07AF081209638F081C
:100810008508A012097EE50A150A70021509D3E5BC
:100820000A9400E5096480948050DE750B00750C15
:1008300007AF081209558F088508A012097EE50C3C
:10084000150C7002150BD3E50C9400E50B64809435
:100850008050DEE4F50DF50E12097E740F250EF8BA
:10086000E6F508F5A0050EE50E7002050DD394031C
:10087000E50D6480948040E0750D00750E0312094B
:100880007E740F250EF8E6F508F5A0E50E150E703E
:0C08900002150DC3E50D6480948050E259
:01089C002239
:0C0971007F077EFF7DFFDDFEDEFADFF673
:01097D002257
:0C097E007F037EFF7DFFDDFEDEFADFF66A
:01098A00224A
:0E095500EF25E0FEEFC413131354014EFF22F2
:0E096300EFC43333335480FEEFC3134EFF2234
:02092900AC0719
:10092B007B07AF04120963AC0712097EDBF47B076C
:10093B00AF04120955AC0712097EDBF47B03740F6D
:09094B002BF8E6FC12097EDBF535
:010954002280
:0300000002089D56
:0C089D00787FE4F6D8FD7581120208E4B3
:1008A900020800E493A3F8E493A34003F68001F25D
:1008B90008DFF48029E493A3F85407240CC8C33350
:1008C900C4540F4420C8834004F456800146F6DF1F
:1008D900E4800B010204081020408090098BE47E1B
:1008E900019360BCA3FF543F30E509541FFEE49314
:1008F900A360010ECF54C025E060A840B8E493A3DB
:10090900FAE493A3F8E493A3C8C582C8CAC583CA05
:10091900F0A3C8C582C8CAC583CADFE9DEE780BEBD
:010991000065
:00000001FF
