:100899000D0A54657374696E672053657269616CDA
:0808A90020554152540D0A00D4
:1008B100759850438920758DFAD28EC299C29822BB
:0808CD008F993099FDC29922B8
:0708D5003098FDAF99C298B5
:0108DC0022F9
:100836008B088A09890AAB08AA09A90A12088060E6
:1008460013050AE50A7002050914F9120880FF1259
:0508560008CD80E22244
:10085B00EFC39400400BEFD394095005EF2430FF06
:10086B0022EFC3940A400BEFD3940F5005EF2437BC
:05087B00FF227F202296
:100800007E201208B17BFF7A08799912083675901C
:100810000F1208D5AE07EE248E6004242070F2E596
:1008200090540FFDFF12085B1208CDEDF4C454F094
:06083000440FF59080DB8F
:030000000208C132
:0C08C100787FE4F6D8FD75810A0208007B
:10088000BB010689828A83E0225002E722BBFE0276
:09089000E32289828A83E49322A9
:00000001FF
